{
  "contractName": "TodoList",
  "abi": [
    {
      "constant": true,
      "inputs": [
        {
          "name": "",
          "type": "address"
        },
        {
          "name": "",
          "type": "uint256"
        }
      ],
      "name": "user",
      "outputs": [
        {
          "name": "date",
          "type": "string"
        },
        {
          "name": "time",
          "type": "string"
        },
        {
          "name": "task",
          "type": "string"
        }
      ],
      "payable": false,
      "stateMutability": "view",
      "type": "function"
    },
    {
      "inputs": [],
      "payable": false,
      "stateMutability": "nonpayable",
      "type": "constructor"
    },
    {
      "anonymous": false,
      "inputs": [
        {
          "indexed": true,
          "name": "user",
          "type": "address"
        },
        {
          "indexed": true,
          "name": "date",
          "type": "string"
        },
        {
          "indexed": true,
          "name": "time",
          "type": "string"
        },
        {
          "indexed": false,
          "name": "task",
          "type": "string"
        }
      ],
      "name": "TaskAdded",
      "type": "event"
    },
    {
      "anonymous": false,
      "inputs": [
        {
          "indexed": true,
          "name": "user",
          "type": "address"
        },
        {
          "indexed": true,
          "name": "date",
          "type": "string"
        },
        {
          "indexed": true,
          "name": "time",
          "type": "string"
        },
        {
          "indexed": false,
          "name": "task",
          "type": "string"
        }
      ],
      "name": "TaskRemoved",
      "type": "event"
    },
    {
      "anonymous": false,
      "inputs": [
        {
          "indexed": true,
          "name": "user",
          "type": "address"
        },
        {
          "indexed": true,
          "name": "taskIndex",
          "type": "uint256"
        },
        {
          "indexed": false,
          "name": "errorCode",
          "type": "string"
        }
      ],
      "name": "RemoveError",
      "type": "event"
    },
    {
      "constant": false,
      "inputs": [
        {
          "name": "date",
          "type": "string"
        },
        {
          "name": "time",
          "type": "string"
        },
        {
          "name": "task",
          "type": "string"
        }
      ],
      "name": "add",
      "outputs": [
        {
          "name": "",
          "type": "bool"
        }
      ],
      "payable": false,
      "stateMutability": "nonpayable",
      "type": "function"
    },
    {
      "constant": false,
      "inputs": [
        {
          "name": "taskIndex",
          "type": "uint256"
        }
      ],
      "name": "remove",
      "outputs": [
        {
          "name": "",
          "type": "bool"
        }
      ],
      "payable": false,
      "stateMutability": "nonpayable",
      "type": "function"
    }
  ],
  "bytecode": "0x6060604052341561000f57600080fd5b610bce8061001e6000396000f300606060405260043610610057576000357c0100000000000000000000000000000000000000000000000000000000900463ffffffff16806314feaa9d1461005c5780634cc8221514610246578063f034d6b114610281575b600080fd5b341561006757600080fd5b61009c600480803573ffffffffffffffffffffffffffffffffffffffff169060200190919080359060200190919050506102ef565b6040518080602001806020018060200184810384528781815460018160011615610100020316600290048152602001915080546001816001161561010002031660029004801561012d5780601f106101025761010080835404028352916020019161012d565b820191906000526020600020905b81548152906001019060200180831161011057829003601f168201915b50508481038352868181546001816001161561010002031660029004815260200191508054600181600116156101000203166002900480156101b05780601f10610185576101008083540402835291602001916101b0565b820191906000526020600020905b81548152906001019060200180831161019357829003601f168201915b50508481038252858181546001816001161561010002031660029004815260200191508054600181600116156101000203166002900480156102335780601f1061020857610100808354040283529160200191610233565b820191906000526020600020905b81548152906001019060200180831161021657829003601f168201915b5050965050505050505060405180910390f35b341561025157600080fd5b6102676004808035906020019091905050610332565b604051808215151515815260200191505060405180910390f35b341561028c57600080fd5b6102d56004808035906020019082018035906020019190919290803590602001908201803590602001919091929080359060200190820180359060200191909192905050610734565b604051808215151515815260200191505060405180910390f35b60006020528160005260406000208181548110151561030a57fe5b9060005260206000209060030201600091509150508060000190806001019080600201905083565b6000806000806000803373ffffffffffffffffffffffffffffffffffffffff1673ffffffffffffffffffffffffffffffffffffffff168152602001908152602001600020925060008380549050148061038f575082805490508510155b1561041d57843373ffffffffffffffffffffffffffffffffffffffff167ff1ff89242247e168ec6d677077c326634f88d43c23ed0617015b8f04aecfcd3d6040518080602001828103825260148152602001807f494e434f52524543545f4c4953545f494e44455800000000000000000000000081525060200191505060405180910390a36000935061072c565b828581548110151561042b57fe5b906000526020600020906003020191508490505b600183805490500381101561051157826001820181548110151561045f57fe5b9060005260206000209060030201838281548110151561047b57fe5b9060005260206000209060030201600082018160000190805460018160011615610100020316600290046104b0929190610965565b50600182018160010190805460018160011615610100020316600290046104d8929190610965565b5060028201816002019080546001816001161561010002031660029004610500929190610965565b50905050808060010191505061043f565b82600184805490500381548110151561052657fe5b90600052602060002090600302016000808201600061054591906109ec565b60018201600061055591906109ec565b60028201600061056591906109ec565b50508280548091906001900361057b9190610a34565b508160010160405180828054600181600116156101000203166002900480156105db5780601f106105b95761010080835404028352918201916105db565b820191906000526020600020905b8154815290600101906020018083116105c7575b505091505060405180910390208260000160405180828054600181600116156101000203166002900480156106475780601f10610625576101008083540402835291820191610647565b820191906000526020600020905b815481529060010190602001808311610633575b505091505060405180910390203373ffffffffffffffffffffffffffffffffffffffff167f4b4a05a37a1432770eaf3231c962875106e5c8a0efe0d748c8c5df29a15078bb8560020160405180806020018281038252838181546001816001161561010002031660029004815260200191508054600181600116156101000203166002900480156107195780601f106106ee57610100808354040283529160200191610719565b820191906000526020600020905b8154815290600101906020018083116106fc57829003601f168201915b50509250505060405180910390a4600193505b505050919050565b600061073e610a66565b60006060604051908101604052808a8a8080601f016020809104026020016040519081016040528093929190818152602001838380828437820191505050505050815260200188888080601f016020809104026020016040519081016040528093929190818152602001838380828437820191505050505050815260200186868080601f01602080910402602001604051908101604052809392919081815260200183838082843782019150505050505081525091506000803373ffffffffffffffffffffffffffffffffffffffff1673ffffffffffffffffffffffffffffffffffffffff16815260200190815260200160002090508080548060010182816108479190610a34565b916000526020600020906003020160008490919091506000820151816000019080519060200190610879929190610a9a565b506020820151816001019080519060200190610896929190610a9a565b5060408201518160020190805190602001906108b3929190610a9a565b50505050868660405180838380828437820191505092505050604051809103902089896040518083838082843782019150509250505060405180910390203373ffffffffffffffffffffffffffffffffffffffff167f63f63cac2d68555d5948de5ada79a9efd555f71b90319d816749ec326cfd92518888604051808060200182810382528484828181526020019250808284378201915050935050505060405180910390a450509695505050505050565b828054600181600116156101000203166002900490600052602060002090601f016020900481019282601f1061099e57805485556109db565b828001600101855582156109db57600052602060002091601f016020900482015b828111156109da5782548255916001019190600101906109bf565b5b5090506109e89190610b1a565b5090565b50805460018160011615610100020316600290046000825580601f10610a125750610a31565b601f016020900490600052602060002090810190610a309190610b1a565b5b50565b815481835581811511610a6157600302816003028360005260206000209182019101610a609190610b3f565b5b505050565b606060405190810160405280610a7a610b8e565b8152602001610a87610b8e565b8152602001610a94610b8e565b81525090565b828054600181600116156101000203166002900490600052602060002090601f016020900481019282601f10610adb57805160ff1916838001178555610b09565b82800160010185558215610b09579182015b82811115610b08578251825591602001919060010190610aed565b5b509050610b169190610b1a565b5090565b610b3c91905b80821115610b38576000816000905550600101610b20565b5090565b90565b610b8b91905b80821115610b875760008082016000610b5e91906109ec565b600182016000610b6e91906109ec565b600282016000610b7e91906109ec565b50600301610b45565b5090565b90565b6020604051908101604052806000815250905600a165627a7a723058204f65227d701b89219cffca6f40b554a4542d0ce323ec01484da103a1505011360029",
  "source": "pragma solidity ^0.4.4;\n\n\ncontract TodoList {\n\n\tevent TaskAdded(address indexed user, string indexed date, string indexed time, string task);\n\n\tevent TaskRemoved(address indexed user, string indexed date, string indexed time, string task);\n\n\tevent RemoveError(address indexed user, uint indexed taskIndex, string errorCode);\n\n\t// Date Time format: YYYY/MM/DD HH:MM, example: 2018/02/05 14:45, means: February 5th, 2018 02:45 PM\n\t// Date format: YYYY/MM/DD, example: 2018/02/05, means: February 5th, 2018\n\t// Time format (24 hours): HH:MM, example: 14:45, means: 02:45 PM\n\n\tstruct Task {\n\t\tstring date;\n\t\tstring time;\n\t\tstring task;\n\t}\n\n\tmapping (address => Task[]) public user;\n\n\tfunction TodoList() { }\n\t\n\t// Date Time format: YYYY/MM/DD HH:MM, example: 2018/02/05 14:45, means: February 5th, 2018 02:45 PM\n\tfunction add(string date, string time, string task) \n\t\texternal\n\t\treturns(bool)\n\t{\n\t\tvar todo = Task(date, time, task);\n\t    var list = user[msg.sender];\n\t\tlist.push(todo);\n\t\tTaskAdded(msg.sender, date, time, task);\n\t}\n\n\t// remove from array with gap\n\tfunction remove(uint taskIndex)\n\t\texternal  \n\t\treturns(bool) \n\t{\n\t\tvar list = user[msg.sender];\n\n        if (list.length == 0 || taskIndex >= list.length) {\n\t\t\tRemoveError(msg.sender, taskIndex, \"INCORRECT_LIST_INDEX\");\n\t\t\treturn false;\n\t\t}\n\n\t\tvar tmp = list[taskIndex];\n\n        for (uint i = taskIndex; i<list.length-1; i++) {\n            list[i] = list[i+1];\n        }\n        delete list[list.length-1];\n        list.length--;\n\n\t\tTaskRemoved(msg.sender, tmp.date, tmp.time, tmp.task);\n\n        return true;\n    }\n\n}\n",
  "sourcePath": "/home/phatnguyen/IBL/ethSmartContract/testContract/todo/contracts/TodoList.sol",
  "compiler": {
    "name": "solc",
    "version": "0.4.19+commit.c4cbbb05.Emscripten.clang"
  },
  "schemaVersion": "1.0.1",
  "updatedAt": "2018-03-09T15:37:42.539Z"
}